:020000040000FA
:10000000B0080020D9000000DD000000DF00000083
:1000100000000000000000000000000000000000E0
:10002000000000000000000000000000E1000000EF
:100030000000000000000000E30000005F08000076
:1000400055080000E107000000000000DD07000087
:10005000DF070000590800005B0800006B08000083
:100060006D0800006F08000071080000000000002B
:1000700000000000E507000057080000D507000059
:10008000D7070000D9070000DB0700006108000067
:1000900063080000650800006708000069080000A8
:1000A000E3070000730800005901000091070000F9
:1000B00093070000F10100005D08000095070000B3
:1000C0000448854600F036F80048004795080000CF
:1000D000C046C046B008002003480047FEE7FEE7E0
:1000E000FEE7FEE7FEE7FEE7C100000003460B4324
:1000F0009B0703D009E008C9121F08C0042AFAD2DE
:1001000003E00B780370401C491C521EF9D2704763
:10011000D2B201E00270401C491EFBD2704700229F
:10012000F6E710B513460A4604461946FFF7F0FFF6
:10013000204610BD064C0125064E05E0E36807CCBD
:100140002B430C3C98471034B442F7D3FFF7BCFF65
:10015000E4080000040900007047000000B5B1B0D9
:10016000A82107A8FFF7DBFF18221D4901A8FFF708
:10017000BDFF1C48C06A0321890708431949C862AA
:1001800018488038C0681021084316498039C86073
:100190001448C06A012108431249C8620846C06A6F
:1001A000022188430F49C8620F484068092108436B
:1001B0000D49486000200D49087005210B48017168
:1001C00007200A4948700221084881700121C17046
:1001D00001A80649C860084600F030F831B000BDFB
:1001E000CC08000080C0084000400B408000002088
:1001F00010B51048406A0121C9030840884218D14F
:100200000C48006A03210906084000280AD0002192
:10021000094800F09FF90748006A012109070843CF
:10022000044908620348406A0121C903084301499F
:10023000486210BD803000409004002030B500229C
:10024000C04B1B6A80242343BE4C23620378002BDF
:1002500004D0012B2CD0022B7ED181E0BA4BDB6A7B
:100260000424A343B84CE362B64B9B6AB74C2340CB
:10027000B44CA36223469B6A047924062343B14C01
:10028000A36223469B6A44782343AE4CA362234671
:100290009B6A84786406640C2343AA4CA3622346B9
:1002A0009B6AC4786406640A2343A64CA362AEE04A
:1002B000A54BDB6A04242343A34CE362A14B1B6AD6
:1002C0000124E40523439F4C236223469B6A9F4CF1
:1002D00023409C4CA36223469B6A04792406234353
:1002E000984CA36223469B6A44782343954CA362AF
:1002F00023469B6A84786406640C2343914CA36272
:1003000023469B6AC4786406640A23438D4CA36227
:100310002346DB6A8E4C23408A4CE3622346DB6A29
:10032000047A24062343874CE3622346DB6A44793C
:10033000E406E40E2343834CE3622346DB6A8479BC
:100340002407240D23437F4CE3622346DB6AC479F0
:100350002407240B234300E058E07A4CE36256E084
:10036000794BDB6A04242343774CE362754B1B6AA9
:100370000124E405A343734C236223469B6A734C18
:100380002340704CA36223469B6A047924062343CE
:100390006C4CA36223469B6A44782343694CA36256
:1003A00023469B6A84786406640C2343654CA362ED
:1003B00023469B6AC4786406640A2343614CA362A3
:1003C0002346DB6A624C23405E4CE3622346DB6AD1
:1003D000047A240623435B4CE3622346DB6A4479B8
:1003E000E406E40E2343574CE3622346DB6A847938
:1003F0002407240D2343534CE3622346DB6AC4796C
:100400002407240B23434F4CE36200E000BF00BFEE
:10041000C368002B66D0C268002161E00C234B4307
:100420009B185B78002B4ED0464B5B6B0C244C43E7
:10043000145D10340125A5402B43424C63632346D1
:100440005B6B0C244C43145D2407240F23433D4C69
:10045000636323465B6B2024A3433A4C63630C2302
:100460004B439B185B68DB00DB08A36323465B6B95
:1004700020242343334C63630C234B439B189B681A
:10048000DB00DB08A3630C234B439B18DB78002BBA
:1004900005D023469B6BA40523432A4CA3630C235E
:1004A0004B439B189B78002B06D0264B9B6B01245B
:1004B000A4072343234CA363224B5B6B2024A34359
:1004C000204C63630AE01F4B5B6B0C244C43145DB0
:1004D00010340125A540AB431A4C63634B1CD9B2C1
:1004E00010299BDB174B1B6A8024A343154C236206
:1004F00023461B6A18242343124C236223461B6A9B
:100500006024A3430F4C236223461B6A2414A34395
:100510000C4C236203235B07636223465B6A0F2450
:100520002406A343074C636223465B6AC224234329
:10053000044C636223465B6A152464042343014C24
:10054000636230BD8030004080C008400080800081
:10055000E0F0F000002904D1164A52685206D20F8A
:10056000C271012901D002290DD1124A1268D20F9D
:100570000271104A5268D206D20F42710D4A526877
:100580009206D20F82710B4A1268D200D208026022
:10059000084A52681207120F4272064A526812063F
:1005A000D20F0272034A9268C260024AD3680361A2
:1005B000704700000030004010B51520800113493D
:1005C00008600120487208200872002008714871F4
:1005D0008871C8710E4908700AE00D4800780D490D
:1005E0000B4A127888540A480078401C0849087061
:1005F0000648007A064909788842EEDC0548034936
:10060000C8600021014800F007F810BD700000200C
:10061000000000200C000020F0B50B46002500BFB4
:100620005A4C246AFF2601363440B442F8D0574C65
:10063000246AF6013443554E34620468E400E40849
:10064000524E403E3461447A002C06D03446246930
:10065000760634434D4E403E3461047A2607360F09
:100660004A4C803C6665002B0AD18479002C07D067
:10067000464C803C646D40263443444E803E746555
:10068000012B01D0022B15D10479002C07D03F4C4F
:10069000803C646D102634433C4E803E7465447942
:1006A000002C07D0394C803C646D20263443374EF3
:1006B000803E7465C479002C07D0344C803C646D56
:1006C00080263443314E803E7465047A082C00DC69
:1006D000027A047A092C00D10C22047A0A2C00D167
:1006E0001022047A0B2C00D11422047A0C2C00D195
:1006F0001822047A0D2C00D12022047A0E2C00D16D
:100700003022047A0F2C00D140221446D617B60F9F
:100710003619B610B600961B1DD0002118E0C4682B
:10072000645C4F1CC668F65D360234438F1CC66895
:10073000F65D36043443CF1CC668F65D3606344396
:100740002546124C283C8E10B600A5510C1DE1B276
:100750009142E4DB0CE0002108E0C46866580B4CD1
:10076000283C8F10BF00E6510C1DE1B29142F4DB32
:10077000064C246A0126B6053443044E34623446DE
:10078000246A76153443014E3462F0BD8030004057
:1007900070477047704700000A4989680122920635
:1007A0001143084A91600849096904229143064AA5
:1007B00011610649086009687D22D2005143044A4C
:1007C0001160704740C0084000E000E004000020D5
:1007D00008000020704770477047704770477047A7
:1007E00070477047704700001648006903210902EE
:1007F000884314490861084600693021884311493B
:10080000086111480F4980314861012008610F4893
:10081000C069042108430D49C8610A480069802164
:1008200008430849086108468069094908400549A4
:1008300088610846C0680121090408430149C8606D
:100840007047000000C00840C4400800007000402D
:10085000050100FE7047704770477047704770474A
:1008600070477047704770477047704770477047D0
:100870007047704702E008C8121F08C1002AFAD169
:1008800070477047002001E001C1121F002AFBD110
:1008900070470000FFF7A8FF4820FFF77DFF1D20ED
:1008A000002809DB00BF00BFC206D20E0121914023
:1008B000054A116000BF00BF00BFFFF74FFCFFF704
:1008C0007BFE00BFFEE7000000E100E0000000004A
:1008D000040200000000000003010100000000000D
:1008E000FFFFFFFF04090000000000200C000000D3
:1008F00074080000100900000C000020A40800008B
:10090000840800000000000000000000000000005B
:04000005000000C136
:00000001FF
