:020000040000FA
:1000000070090020D9000000DD000000DF000000C2
:1000100000000000000000000000000000000000E0
:10002000000000000000000000000000E1000000EF
:100030000000000000000000E30000008B0800004A
:10004000810800000D080000000000000908000001
:100050000B080000850800008708000097080000D2
:10006000990800009B0800009D08000000000000A7
:1000700000000000110800008308000001080000D3
:100080000308000005080000070800008D080000B4
:100090008F080000910800009308000095080000F8
:1000A0000F0800009F080000110100007D070000FC
:1000B0007F07000099010000890800008107000007
:1000C0000448854600F012F800480047C1080000C7
:1000D000C046C0467009002003480047FEE7FEE71F
:1000E000FEE7FEE7FEE7FEE7C1000000064C012543
:1000F000064E05E0E36807CC2B430C3C98471034D0
:10010000B442F7D3FFF7E0FFF80800001809000039
:100110007047000010B51C48C06A032189070843D6
:100120001949C86218488038C06810210843164928
:100130008039C8601448C06A012108431249C86266
:100140000846C06A022188430F49C8620F484068C8
:10015000092108430D49486000200D490870052118
:100160000B48417107200A49887002210848C17074
:10017000012101710120064948700648C8600846FF
:1001800000F030F810BD000080C0084000400B4077
:10019000400100200400002010B51048406A0121F1
:1001A000C9030840884218D10C48006A0321090697
:1001B000084000280AD00021094800F09FF90748AC
:1001C000006A012109070843044908620348406A9C
:1001D0000121C90308430149486210BD8030004035
:1001E0005005002030B50022C04B1B6A80242343F9
:1001F000BE4C23620378002B04D0012B2CD0022BA1
:100200007ED181E0BA4BDB6A0424A343B84CE3629D
:10021000B64B9B6AB74C2340B44CA36223469B6AFF
:10022000447924062343B14CA36223469B6A847815
:100230002343AE4CA36223469B6AC4786406640CD5
:100240002343AA4CA36223469B6A04796406640A8A
:100250002343A64CA362AEE0A54BDB6A04242343F0
:10026000A34CE362A14B1B6A0124E40523439F4C8A
:10027000236223469B6A9F4C23409C4CA3622346E7
:100280009B6A447924062343984CA36223469B6AC5
:1002900084782343954CA36223469B6AC478640602
:1002A000640C2343914CA36223469B6A0479640641
:1002B000640A23438D4CA3622346DB6A8E4C2340A1
:1002C0008A4CE3622346DB6A447A24062343874C44
:1002D000E3622346DB6A8479E406E40E2343834C1D
:1002E000E3622346DB6AC4792407240D23437F4C51
:1002F000E3622346DB6A047A2407240B234300E0ED
:1003000058E07A4CE36256E0794BDB6A04242343DD
:10031000774CE362754B1B6A0124E405A343734CDD
:10032000236223469B6A734C2340704CA36223468E
:100330009B6A4479240623436C4CA36223469B6A40
:1003400084782343694CA36223469B6AC47864067D
:10035000640C2343654CA36223469B6A04796406BC
:10036000640A2343614CA3622346DB6A624C234048
:100370005E4CE3622346DB6A447A240623435B4CEB
:10038000E3622346DB6A8479E406E40E2343574C98
:10039000E3622346DB6AC4792407240D2343534CCC
:1003A000E3622346DB6A047A2407240B23434F4C81
:1003B000E36200E000BF00BFC368002B67D0C268E3
:1003C000002161E00C234B439B185B78002B4ED03F
:1003D000464B5B6B0C244C43145D10340125A54047
:1003E0002B43424C636323465B6B0C244C43145DEC
:1003F0002407240F23433D4C636323465B6B202477
:10040000A3433A4C63630C234B439B185B68DB00AC
:10041000DB08A36323465B6B20242343334C6363D5
:100420000C234B439B189B68DB00DB08A3630C2366
:100430004B439B18DB78002B05D023469B6BA40510
:1004400023432A4CA3630C234B439B189B78002B1C
:1004500006D0264B9B6B0124A4072343234CA363A4
:10046000224B5B6B2024A343204C63630AE01F4BA9
:100470005B6B0C244C43145D10340125A540AB4349
:100480001A4C63634B1CD9B243788B429ADC174BEE
:100490001B6A8024A343154C236223461B6A18243D
:1004A0002343124C236223461B6A6024A3430F4C50
:1004B000236223461B6A402423430C4C23622346B9
:1004C0001B6A2414A343094C236205231B076362A0
:1004D00023465B6A0F242406A343044C636223462D
:1004E0005B6A80242343014C636230BD803000404E
:1004F00080C0084000808000E0F0F000002904D1B6
:10050000164A52685206D20FC271012901D002293F
:100510000DD1124A1268D20F0271104A5268D206E7
:10052000D20F42710D4A52689206D20F82710B4A65
:100530001268D200D2080260084A52681207120FED
:100540004272064A52681206D20F0272034A926839
:10055000C260024AD3680361704700000030004067
:1005600010B5152080011549086001204872082047
:1005700008720020087148718871C87110490870AC
:100580000AE00F4800780F490D4A127888540C4849
:100590000078401C0A4908700848007A0849097820
:1005A0008842EEDC07480549C86001220021034863
:1005B00000F00AF80A2000F003F910BD3001002015
:1005C00000000020CC000020F8B50B4614460025A2
:1005D0000095002C0ED000BF674D2D6A01267602D3
:1005E0003540B542F8D0644D2D6AB6013543624EB0
:1005F00035620DE000BF604D2D6A0126F6023540E0
:10060000B542F8D05C4D2D6A3601B5435A4E35627D
:100610000568ED00ED08584E403E3561457A002DE5
:1006200006D035462D6976063543534E403E35613A
:10063000057A2E07360F504D803D6E65002B0AD18E
:100640008579002D07D04C4D803D6D6D402635439A
:10065000494E803E7565012B01D0022B15D10579DD
:10066000002D07D0444D803D6D6D10263543424E20
:10067000803E75654579002D07D03F4D803D6D6DFD
:10068000202635433C4E803E7565C579002D07D048
:10069000394D803D6D6D80263543374E803E756502
:1006A000057A082D00DC027A057A092D00D10C228A
:1006B000057A0A2D00D11022057A0B2D00D11422C3
:1006C000057A0C2D00D11822057A0D2D00D120229B
:1006D000057A0E2D00D13022057A0F2D00D140224F
:1006E0001546D617B60F7619B610B600961B1ED053
:1006F000002119E0C5686D5C4F1CC668F65D3602C6
:1007000035438F1CC668F65D36043543CF1CC6687A
:10071000F65D360635430095174D283D8F10BF0016
:10072000009EEE510D1DE9B29142E3DB0CE0002189
:1007300008E0C5686E58104D283D8F10BF00EE517F
:100740000D1DE9B29142F4DB002C0DD00A4D2D6A4B
:100750000126B6053543084E356235462D6A3615F5
:100760003543054E356206E0034D2D6A01263603FA
:100770003543014E3562F8BD803000407047704708
:10078000704700000A498968012292061143084A0D
:1007900091600849096904229143064A116106499A
:1007A000086009687D22D2005143044A11607047F5
:1007B00040C0084000E000E0C4000020C800002065
:1007C00001460D4A12684A430C4B5A6100229A6155
:1007D00007221A6100BF094A1069C207D20F002A16
:1007E00004D0012212040240002AF4D00022034B5C
:1007F0001A619A6170470000C800002000E000E024
:100800007047704770477047704770477047704730
:100810007047000016480069032109028843144903
:100820000861084600693021884311490861114870
:100830000F4980314861012008610F48C0690421D7
:1008400008430D49C8610A480069802108430849E6
:1008500008610846806909490840054988610846D9
:10086000C0680121090408430149C86070470000BD
:1008700000C00840C440080000700040050100FEB0
:1008800070477047704770477047704770477047B0
:1008900070477047704770477047704770477047A0
:1008A00002E008C8121F08C1002AFAD17047704739
:1008B000002001E001C1121F002AFBD17047000097
:1008C000FFF7A8FF4820FFF75DFF1D20002809DB88
:1008D00000BF00BFC206D20E01219140054A11603F
:1008E00000BF00BF00BFFFF715FCFFF739FE00BFD8
:1008F000FEE7000000E100E0180900000000002011
:10090000CC000000A0080000E4090000CC0000209A
:10091000A4080000B0080000000000000001000072
:1009200000020000FFFFFF1F0000000000000000A9
:1009300000000000000000000000000000000000B7
:1009400000000000000000000000000000000000A7
:100950000000000000000000000000000000000097
:100960000000000000000000000000000000000087
:100970000000000000000000000000000000000077
:100980000000000000000000000000000000000067
:100990000000000000000000000000000000000057
:1009A0000000000000000000000000000000000047
:1009B0000000000000000000000000000000000037
:1009C0000000000000000000000000000000000027
:1009D0000000000000000000000000000000000017
:0409E0000000000013
:04000005000000C136
:00000001FF
