:020000040000FA
:1000000070090020D9000000DD000000DF000000C2
:1000100000000000000000000000000000000000E0
:10002000000000000000000000000000E1000000EF
:100030000000000000000000E3000000970900003D
:100040008D090000190900000000000015090000DA
:10005000170900009109000093090000A30900009E
:10006000A5090000A7090000A90900000000000080
:10007000000000001D0900008F0900000D090000AC
:100080000F09000011090000130900009909000080
:100090009B0900009D0900009F090000A1090000C4
:1000A0001B090000AB0900001101000089080000D5
:1000B0008B080000AD010000950900008D080000CC
:1000C0000448854600F012F800480047CD090000BA
:1000D000C046C0467009002003480047FEE7FEE71F
:1000E000FEE7FEE7FEE7FEE7C1000000064C012543
:1000F000064E05E0E36807CC2B430C3C98471034D0
:10010000B442F7D3FFF7E0FF040A0000240A00001E
:100110007047000010B52148C06A032189070843D1
:100120001E49C8621D488038C068102108431B4919
:100130008039C8601948C06A012108431749C8625C
:100140000846C06A022188431449C86214484068BE
:10015000092108431249486001201249087005210D
:100160001048417107200F49887002210D48C17065
:10017000012101710521417207200A49887102217C
:100180000848C171012101720120064948700648E2
:10019000C860084600F0AEF810BD000080C00840FE
:1001A00000400B40400100200400002010B54F48E3
:1001B000406A0121C9030840884218D14B48006AAF
:1001C00003210906084000280AD00021484800F011
:1001D00019FA4648006A01210907084343490862A1
:1001E0004248406A0121C9030843404948623F48E8
:1001F000406AFF2101310840884204D13B48406AEF
:1002000008433A4948623948406A01214902084096
:1002100088420AD13548406A084334494862084652
:10022000006A01210843314908623048406A0121CF
:1002300089020840884204D12C48406A08432B496F
:1002400048622A48406A0121C9020840884204D114
:100250002648406A0843254948622448406A0121EB
:1002600009030840884204D12048406A08431F49D6
:1002700048621E48406A012149030840884204D16F
:100280001A48406A0843194948621848406A0121DF
:1002900089030840884204D11448406A084313493E
:1002A00048621248406A012109040840884204D18A
:1002B0000E48406A08430D4948620C48406A0121D3
:1002C00089040840884204D10848406A0843074925
:1002D00048620648406A012109050840884204D165
:1002E0000248406A08430149486210BD803000401E
:1002F0005005002030B50022BE4B1B6A80242343EA
:10030000BC4C23620378002B04D0012B2CD0022B91
:100310007ED181E0B84BDB6A0424A343B64CE36290
:10032000B44B9B6AB54C2340B24CA36223469B6AF4
:10033000447924062343AF4CA36223469B6A847806
:100340002343AC4CA36223469B6AC4786406640CC6
:100350002343A84CA36223469B6A04796406640A7B
:100360002343A44CA362AEE0A34BDB6A04242343E3
:10037000A14CE3629F4B1B6A0124E40523439D4C7F
:10038000236223469B6A9D4C23409A4CA3622346DA
:100390009B6A447924062343964CA36223469B6AB6
:1003A00084782343934CA36223469B6AC4786406F3
:1003B000640C23438F4CA36223469B6A0479640632
:1003C000640A23438B4CA3622346DB6A8C4C234094
:1003D000884CE3622346DB6A447A24062343854C37
:1003E000E3622346DB6A8479E406E40E2343814C0E
:1003F000E3622346DB6AC4792407240D23437D4C42
:10040000E3622346DB6A047A2407240B234300E0DB
:1004100058E0784CE36256E0774BDB6A04242343D0
:10042000754CE362734B1B6A0124E405A343714CD2
:10043000236223469B6A714C23406E4CA362234681
:100440009B6A4479240623436A4CA36223469B6A31
:1004500084782343674CA36223469B6AC47864066E
:10046000640C2343634CA36223469B6A04796406AD
:10047000640A23435F4CA3622346DB6A604C23403B
:100480005C4CE3622346DB6A447A24062343594CDE
:10049000E3622346DB6A8479E406E40E2343554C89
:1004A000E3622346DB6AC4792407240D2343514CBD
:1004B000E3622346DB6A047A2407240B23434D4C72
:1004C000E36200E000BF00BFC368002B67D0C268D2
:1004D000002161E00C234B439B185B78002B4ED02E
:1004E000444B5B6B0C244C43145D10340125A54038
:1004F0002B43404C636323465B6B0C244C43145DDD
:100500002407240F23433B4C636323465B6B202467
:10051000A343384C63630C234B439B185B68DB009D
:10052000DB08A36323465B6B20242343314C6363C6
:100530000C234B439B189B68DB00DB08A3630C2355
:100540004B439B18DB78002B05D023469B6BA405FF
:100550002343284CA3630C234B439B189B78002B0D
:1005600006D0244B9B6B0124A4072343214CA36397
:10057000204B5B6B2024A3431E4C63630AE01D4B9E
:100580005B6B0C244C43145D10340125A540AB4338
:10059000184C63634B1CD9B243788B429ADC154BE1
:1005A0001B6A8024A343134C236223461B6A18242E
:1005B0002343104C236223461B6A6024A3430D4C43
:1005C000236223461B6A2414A3430A4C2362052397
:1005D0001B07636223465B6A0F242406A343054C72
:1005E000636223465B6A012464042343014C636213
:1005F00030BD00008030004080C008400080800096
:10060000E0F0F000002904D1164A52685206D20FD9
:10061000C271012901D002290DD1124A1268D20FEC
:100620000271104A5268D206D20F42710D4A5268C6
:100630009206D20F82710B4A1268D200D208026071
:10064000084A52681207120F4272064A526812068E
:10065000D20F0272034A9268C260024AD3680361F1
:10066000704700000030004010B515208001164989
:1006700008600120487208200872002008710120DB
:10068000487100208871C871104908700AE00F484D
:1006900000780F490D4A127888540C480078401CA5
:1006A0000A4908700848007A084909788842EEDC4F
:1006B00007480549C86001221146034800F00AF8BE
:1006C0000A2000F003F910BD3001002000000020D6
:1006D000CC000020F8B50B46144600250095002CF0
:1006E0000ED000BF674D2D6A012676023540B54217
:1006F000F8D0644D2D6AB6013543624E35620DE087
:1007000000BF604D2D6A0126F6023540B542F8D093
:100710005C4D2D6A3601B5435A4E35620568ED00D1
:10072000ED08584E403E3561457A002D06D03546DD
:100730002D6976063543534E403E3561057A2E07C6
:10074000360F504D803D6E65002B0AD18579002D06
:1007500007D04C4D803D6D6D40263543494E803E5F
:100760007565012B01D0022B15D10579002D07D01D
:10077000444D803D6D6D10263543424E803E75657B
:100780004579002D07D03F4D803D6D6D20263543C6
:100790003C4E803E7565C579002D07D0394D803DB2
:1007A0006D6D80263543374E803E7565057A082D80
:1007B00000DC027A057A092D00D10C22057A0A2D77
:1007C00000D11022057A0B2D00D11422057A0C2DB0
:1007D00000D11822057A0D2D00D12022057A0E2D88
:1007E00000D13022057A0F2D00D140221546D617B0
:1007F000B60F7619B610B600961B1ED0002119E070
:10080000C5686D5C4F1CC668F65D360235438F1CAB
:10081000C668F65D36043543CF1CC668F65D3606FD
:1008200035430095174D283D8F10BF00009EEE51B7
:100830000D1DE9B29142E3DB0CE0002108E0C56840
:100840006E58104D283D8F10BF00EE510D1DE9B2BE
:100850009142F4DB002C0DD00A4D2D6A0126B6051D
:100860003543084E356235462D6A36153543054EFB
:10087000356206E0034D2D6A012636033543014EED
:100880003562F8BD80300040704770477047000007
:100890000A498968012292061143084A9160084971
:1008A000096904229143064A1161064908600968F2
:1008B0007D22D2005143044A1160704740C0084075
:1008C00000E000E0C4000020C800002001460D4AFE
:1008D00012684A430C4B5A6100229A6107221A613E
:1008E00000BF094A1069C207D20F002A04D00122B2
:1008F00012040240002AF4D00022034B1A619A61CC
:1009000070470000C800002000E000E0704770471A
:1009100070477047704770477047704770470000D6
:1009200016480069032109028843144908610846F2
:100930000069302188431149086111480F4980310D
:100940004861012008610F48C069042108430D492E
:10095000C8610A48006980210843084908610846BF
:10096000806909490840054988610846C068012135
:10097000090408430149C8607047000000C00840EE
:10098000C440080000700040050100FE7047704739
:10099000704770477047704770477047704770479F
:1009A00070477047704770477047704702E008C84B
:1009B000121F08C1002AFAD170477047002001E0D9
:1009C00001C1121F002AFBD170470000FFF7A8FFEA
:1009D0004820FFF75DFF1D20002809DB00BF00BF96
:1009E000C206D20E01219140054A116000BF00BF2E
:1009F00000BFFFF78FFBFFF737FE00BFFEE70000E9
:100A000000E100E0240A000000000020CC0000000B
:100A1000AC090000F00A0000CC000020A40800008F
:100A2000BC090000000000000001000000020000FE
:100A3000FFFFFF1F0000000000000000000000009A
:100A400000000000000000000000000000000000A6
:100A50000000000000000000000000000000000096
:100A60000000000000000000000000000000000086
:100A70000000000000000000000000000000000076
:100A80000000000000000000000000000000000066
:100A90000000000000000000000000000000000056
:100AA0000000000000000000000000000000000046
:100AB0000000000000000000000000000000000036
:100AC0000000000000000000000000000000000026
:100AD0000000000000000000000000000000000016
:100AE0000000000000000000000000000000000006
:04000005000000C136
:00000001FF
