:020000040000FA
:10000000A8090020D9000000DD000000DF0000008A
:1000100000000000000000000000000000000000E0
:10002000000000000000000000000000E1000000EF
:100030000000000000000000E3000000C308000012
:10004000B908000039080000000000003508000071
:1000500037080000BD080000BF080000CF080000FE
:10006000D1080000D3080000D508000000000000FF
:10007000000000003D080000BB0800002D08000043
:100080002F0800003108000033080000C5080000F8
:10009000C7080000C9080000CB080000CD08000018
:1000A0003B080000D708000011010000A90700006C
:1000B000AB070000A5010000C1080000AD0700006B
:1000C0000448854600F012F800480047F90800008F
:1000D000C046C046A809002003480047FEE7FEE7E7
:1000E000FEE7FEE7FEE7FEE7C1000000064C012543
:1000F000064E05E0E36807CC2B430C3C98471034D0
:10010000B442F7D3FFF7E0FF3009000050090000C8
:100110007047000010B51F48C06A032189070843D3
:100120001C49C8621B488038C0681021084319491F
:100130008039C8601748C06A012108431549C86260
:100140000846C06A022188431249C86212484068C2
:100150000921084310494860012010490870052111
:100160000E48417107200D49887002210B48C1706B
:100170000121017100214172052008498871012186
:100180000648C171017206480449C860084600F07B
:100190002FF810BD80C0084000400B4040010020F7
:1001A0000400002010B51048406A0121C90308402E
:1001B000884218D10C48006A03210906084000282B
:1001C0000AD00121094800F0A7F90748006A012177
:1001D00009070843044908620348406A0121C9032A
:1001E00008430149486210BD80300040500500209E
:1001F00030B50022C44B1B6A80242343C24C2362C7
:100200000378002B04D0012B2CD0022B7ED181E06F
:10021000BE4BDB6A0424A343BC4CE362BA4B9B6A2B
:10022000BB4C2340B84CA36223469B6A4479240606
:100230002343B54CA36223469B6A84782343B24C84
:10024000A36223469B6AC4786406640C2343AE4CC5
:10025000A36223469B6A04796406640A2343AA4C7A
:10026000A362AEE0A94BDB6A04242343A74CE362FC
:10027000A54B1B6A0124E4052343A34C23622346B8
:100280009B6AA34C2340A04CA36223469B6A4479FB
:10029000240623439C4CA36223469B6A8478234311
:1002A000994CA36223469B6AC4786406640C23437A
:1002B000954CA36223469B6A04796406640A23432F
:1002C000914CA3622346DB6A924C23408E4CE3623E
:1002D0002346DB6A447A240623438B4CE36223469D
:1002E000DB6A8479E406E40E2343874CE362234609
:1002F000DB6AC4792407240D2343834CE36223463D
:10030000DB6A047A2407240B234300E058E07E4C88
:10031000E36256E07D4BDB6A042423437B4CE362BB
:10032000794B1B6A0124E405A343774C23622346DF
:100330009B6A774C2340744CA36223469B6A4479A2
:1003400024062343704CA36223469B6A847823438C
:100350006D4CA36223469B6AC4786406640C2343F5
:10036000694CA36223469B6A04796406640A2343AA
:10037000654CA3622346DB6A664C2340624CE36211
:100380002346DB6A447A240623435F4CE362234618
:10039000DB6A8479E406E40E23435B4CE362234684
:1003A000DB6AC4792407240D2343574CE3622346B8
:1003B000DB6A047A2407240B2343534CE36200E0F6
:1003C00000BF00BF504B1B6B8479A41C2402234345
:1003D0004D4C236323461B6BE41323434A4C236396
:1003E000C368002B67D0C268002161E00C234B4337
:1003F0009B185B78002B4ED0434B5B6B0C244C431B
:10040000145D10340125A5402B433F4C6363234604
:100410005B6B0C244C43145D2407240F23433A4C9C
:10042000636323465B6B2024A343374C63630C2335
:100430004B439B185B68DB00DB08A36323465B6BC5
:1004400020242343304C63630C234B439B189B684D
:10045000DB00DB08A3630C234B439B18DB78002BEA
:1004600005D023469B6BA4052343274CA3630C2391
:100470004B439B189B78002B06D0234B9B6B01248E
:10048000A4072343204CA3631F4B5B6B2024A3438F
:100490001D4C63630AE01C4B5B6B0C244C43145DE6
:1004A00010340125A540AB43174C63634B1CD9B2F4
:1004B00043788B429ADC144B1B6A8024A343124C72
:1004C000236223461B6A182423430F4C23622346CE
:1004D0001B6A6024A3430C4C236223461B6A24142A
:1004E000A343094C236205231B07636223465B6A0F
:1004F0000F242406A343044C636223465B6A8024D2
:100500002343014C636230BD8030004080C008400E
:1005100000808000E0F0F00030B50A46002A04D1E7
:100520001A4B5B685B06DB0FC371012A01D0022AFC
:100530000DD1164B1B68DB0F0371144B5B68DB0698
:10054000DB0F4371114B5B689B06DB0F83710F4B15
:100550001B68DB00DB0803600C4B5B681B071B0F91
:1005600043720A4B5B681B06DB0F0372002109E034
:10057000064B08338C001C598D0003460C335C512C
:100580004B1CD9B21029F3DB30BD00000030004015
:1005900010B50A2000F02AF907200002124908606D
:1005A000012048720F200872012008714871002054
:1005B000C8710E4908700AE00C4800780C490B4AD3
:1005C0001278885409480078401C08490870074888
:1005D00000784028F0DB06480349C8600122114634
:1005E000014800F007F810BD300100200000002095
:1005F000CC000020F8B50B46144600250095002CD1
:100600000ED000BF674D2D6A012676023540B542F7
:10061000F8D0644D2D6AB6013543624E35620DE067
:1006200000BF604D2D6A0126F6023540B542F8D074
:100630005C4D2D6A3601B5435A4E35620568ED00B2
:10064000ED08584E403E3561457A002D06D03546BE
:100650002D6976063543534E403E3561057A2E07A7
:10066000360F504D803D6E65002B0AD18579002DE7
:1006700007D04C4D803D6D6D40263543494E803E40
:100680007565012B01D0022B15D10579002D07D0FE
:10069000444D803D6D6D10263543424E803E75655C
:1006A0004579002D07D03F4D803D6D6D20263543A7
:1006B0003C4E803E7565C579002D07D0394D803D93
:1006C0006D6D80263543374E803E7565057A082D61
:1006D00000DC027A057A092D00D10C22057A0A2D58
:1006E00000D11022057A0B2D00D11422057A0C2D91
:1006F00000D11822057A0D2D00D12022057A0E2D69
:1007000000D13022057A0F2D00D140221546D61790
:10071000B60F7619B610B600961B1ED0002119E050
:10072000C5686D5C4F1CC668F65D360235438F1C8C
:10073000C668F65D36043543CF1CC668F65D3606DE
:1007400035430095174D283D8F10BF00009EEE5198
:100750000D1DE9B29142E3DB0CE0002108E0C56821
:100760006E58104D283D8F10BF00EE510D1DE9B29F
:100770009142F4DB002C0DD00A4D2D6A0126B605FE
:100780003543084E356235462D6A36153543054EDC
:10079000356206E0034D2D6A012636033543014ECE
:1007A0003562F8BD803000407047704770470000E8
:1007B0000A498968012292061143084A9160084952
:1007C000096904229143064A1161064908600968D3
:1007D0007D22D2005143044A1160704740C0084056
:1007E00000E000E0C4000020C800002001460D4ADF
:1007F00012684A430C4B5A6100229A6107221A611F
:1008000000BF094A1069C207D20F002A04D0012292
:1008100012040240002AF4D00022034B1A619A61AC
:1008200070470000C800002000E000E070477047FB
:1008300070477047704770477047704770470000B7
:10084000194800690821884317490861084600696A
:1008500003210902884314490861084600693021D0
:1008600088431149086111480F49803148610120CE
:1008700008610F48C069042108430D49C8610A484E
:1008800000698021084308490861084680690949D0
:100890000840054988610846C068012109040843E9
:1008A0000149C8607047000000C00840C44008000B
:1008B00000700040050100FE7047704770477047A8
:1008C0007047704770477047704770477047704770
:1008D000704770477047704702E008C8121F08C190
:1008E000002AFAD170477047002001E001C1121FB1
:1008F000002AFBD170470000FFF7A2FF4820FFF756
:1009000057FF1D20002809DB00BF00BFC206D20E22
:1009100001219140054A116000BF00BF00BFFFF7F1
:10092000F9FBFFF735FE00BFFEE7000000E100E045
:100930005009000000000020CC000000D808000092
:100940001C0A0000CC000020DC080000E8080000C1
:100950000000000000010000000200000000000094
:100960000000000000000000000000000000000087
:100970000000000000000000000000000000000077
:100980000000000000000000000000000000000067
:100990000000000000000000000000000000000057
:1009A0000000000000000000000000000000000047
:1009B0000000000000000000000000000000000037
:1009C0000000000000000000000000000000000027
:1009D0000000000000000000000000000000000017
:1009E0000000000000000000000000000000000007
:1009F00000000000000000000000000000000000F7
:100A000000000000000000000000000000000000E6
:0C0A1000000000000000000000000000DA
:04000005000000C136
:00000001FF
