:020000040000FA
:1000000020080020D9000000DD000000DF00000013
:1000100000000000000000000000000000000000E0
:10002000000000000000000000000000E1000000EF
:100030000000000000000000E300000003030000D7
:10004000F902000091010000000000008D01000095
:100050008F010000FD020000FF02000011030000FC
:10006000890400008B0400008D04000000000000E3
:10007000000000008B020000FB0200008501000070
:1000800087010000890100008B01000005030000CA
:1000900007030000090300000B0300000D0300002C
:1000A000890200008F0400003D01000041010000B2
:1000B000430100003F010000010300004501000072
:1000C0000448854600F028F800480047B1040000C5
:1000D000C046C0462008002003480047FEE7FEE770
:1000E000FEE7FEE7FEE7FEE7C100000030B50B4685
:1000F000014600202022012409E00D46D5409D4202
:1001000005D31D469540491B254695404019154687
:10011000521E002DF1DC30BD064C0125064E05E0D7
:10012000E36807CC2B430C3C98471034B442F7D318
:10013000FFF7CAFF04050000240500007047704760
:1001400070477047704700000A498968012292068B
:100150001143084A91600849096904229143064AFB
:1001600011610649086009687D22D2005143044AA2
:100170001160704740C0084000E000E01800002017
:100180001C000020704770477047704770477047E9
:1001900070470000F8B504460D46002600270020F1
:1001A0000090364880680121090608433349886079
:1001B000334800680921490508433149086031483E
:1001C0000068502108432F490860084640680A210A
:1001D00008432C4948600846406830218843294933
:1001E000486008464068C0210843264948600846E0
:1001F00040688915884323494860084640680121C2
:10020000C90208431F494860084640680321490263
:1002100088431C4948600846406803210903884315
:1002200018494860174840304069800880001549E7
:1002300040314861084640690721090208431149D5
:1002400040314861C8040F49886008460068891534
:1002500008430C49086021012846FFF747FF06467E
:1002600061002846FFF742FFF100471A3804304387
:100270000090044900980862F8BD000000C00840E2
:1002800000400B4000000C40704770471648006962
:100290000321090288431449086108460069302196
:1002A00088431149086111480F4980314861012094
:1002B00008610F48C069042108430D49C8610A4814
:1002C0000069802108430849086108468069094996
:1002D0000840054988610846C068012109040843AF
:1002E0000149C8607047000000C00840C4400800D1
:1002F00000700040050100FE70477047704770476E
:1003000070477047704770477047704770470000EC
:1003100043484069012149030840884202D1012035
:10032000404908703E484069C00FC0070121C90715
:10033000884202D105203C490870394840690121B2
:1003400049070840884202D10420374908703448E0
:100350004069012189060840884202D103203249C0
:1003600008702F4840690121C9060840884202D11F
:1003700002202D4908702A484069012109070840D8
:10038000884202D10120284908702548406901218E
:1003900049060840884202D10620234908702048B7
:1003A0004069012189030840800B1E490978012911
:1003B00000D100E00021084000280FD0184840304C
:1003C00080693D280AD11648403040690121084320
:1003D00013494031486102201249087010484069B1
:1003E0000121484048400F490978022901D10121E3
:1003F00000E00021084000280AD009488069C1B205
:100400000A4802780078401C084B1870084881544C
:1004100003480068FF210131084301490860704723
:1004200000000C400B0000200C0000200900002000
:100430002000002000BF044949690222114002291E
:10044000F9D10149C861704700000C4030B503463E
:100450000C46002504E01878FFF7ECFF5B1C6D1CD0
:10046000A542F8D300BF074840690121C9030840ED
:100470008842F8D103480068C9110843014908605F
:1004800030BD000000000C40704770477047704757
:1004900002E008C8121F08C1002AFAD1704770474D
:1004A000002001E001C1121F002AFBD170470000AB
:1004B000FFF7ECFE1820FFF747FE0720002809DBB6
:1004C00000BF00BFC206D20E01219140094A11604F
:1004D00000BF00BF00BF08497D200001FFF75AFEA2
:1004E00011200649886108210548FFF7AFFF00BFCA
:1004F000FEE7000000E100E000A24A0440000C40DA
:100500000100002024050000000000202000000061
:1005100090040000440500002000002000080000B6
:10052000A00400000000A55A112233445500000029
:1005300000A50102030405065500000000000000AC
:0405400000000000B7
:04000005000000C136
:00000001FF
