:020000040000FA
:1000000030080020D9000000DD000000DF00000003
:1000100000000000000000000000000000000000E0
:10002000000000000000000000000000E1000000EF
:100030000000000000000000E3000000D303000007
:10004000C903000041020000000000003D02000062
:100050003F020000CD030000CF030000E1030000D9
:10006000A1040000A3040000A5040000000000009B
:10007000000000005B030000CB030000350200001D
:1000800037020000390200003B020000D5030000E7
:10009000D7030000D9030000DB030000DD030000EC
:1000A00059030000A70400003D010000F101000019
:1000B000F301000041010000D1030000F501000040
:1000C0000448854600F028F800480047C9040000AD
:1000D000C046C0463008002003480047FEE7FEE760
:1000E000FEE7FEE7FEE7FEE7C100000030B50B4685
:1000F000014600202022012409E00D46D5409D4202
:1001000005D31D469540491B254695404019154687
:10011000521E002DF1DC30BD064C0125064E05E0D7
:10012000E36807CC2B430C3C98471034B442F7D318
:10013000FFF7CAFF0805000028050000704700000F
:1001400010B51048406A012189030840884218D13F
:100150000C48006A03210906084000280AD0002143
:10016000094800F013F80748006A0121090708430D
:10017000044908620348406A012189030843014990
:10018000486210BD8030004014040020002904D1D2
:10019000164A52685206D20FC271012901D00229B3
:1001A0000DD1124A1268D20F0271104A5268D2065B
:1001B000D20F42710D4A52689206D20F82710B4AD9
:1001C0001268D200D2080260084A52681207120F61
:1001D0004272064A52681206D20F0272034A9268AD
:1001E000C260024AD36803617047000000300040DB
:1001F00070477047704700000A49896801229206DB
:100200001143084A91600849096904229143064A4A
:1002100011610649086009687D22D2005143044AF1
:100220001160704740C0084000E000E00C00002072
:100230001000002070477047704770477047704744
:1002400070470000F8B504460D4600260027002040
:1002500000903E4880680121090608433B498860B8
:100260003B48006809214905084339490860394875
:1002700000685021084337490860084640680B2150
:100280000843344948600846406830218843314972
:10029000486008464068C02108432E494860084627
:1002A0004068891588432B49486008464068012109
:1002B000C9020843274948600846406803214902AB
:1002C000884324494860084640680321090388435D
:1002D000204948601F4840304069800880001D491F
:1002E000403148610846406907210902084319491D
:1002F00040314861174880680121084315498860EA
:10030000084680680121490308431249886008466D
:1003100080680121890308430E4988600846006807
:10032000891508430B49086021012846FFF7DEFEC6
:10033000064661002846FFF7D9FEF100471A380447
:1003400030430090034900980862F8BD00C008409F
:1003500000400B4000000C40704770471648006991
:1003600003210902884314490861084600693021C5
:1003700088431149086111480F49803148610120C3
:1003800008610F48C069042108430D49C8610A4843
:1003900000698021084308490861084680690949C5
:1003A0000840054988610846C068012109040843DE
:1003B0000149C8607047000000C00840C440080000
:1003C00000700040050100FE70477047704770479D
:1003D000704770477047704770477047704700001C
:1003E00010B517484069012149030840884202D1ED
:1003F000012014490870124840690121890308400E
:10040000800B10490978012900D100E00021084043
:10041000002810D00A48403080692D280BD10848A8
:10042000403040698008800005494031486108211A
:10043000054800F017F8FF2001300149086010BDA1
:1004400000000C40020000200300002000BF04490F
:100450004969022211400229F9D10149C861704756
:1004600000000C4030B503460C46002504E0187827
:10047000FFF7ECFF5B1C6D1CA542F8D300BF0748DB
:1004800040690121C90308408842F8D10348006847
:10049000C91108430149086030BD000000000C404C
:1004A000704770477047704702E008C8121F08C1C4
:1004B000002AFAD170477047002001E001C1121FE5
:1004C000002AFBD170470000FFF748FF4820FFF7E4
:1004D00093FE0720002809DB00BF00BFC206D20E32
:1004E00001219140054A116000BF00BF00BF0449CF
:1004F0000448FFF7A7FE00BFFEE7000000E100E0B0
:1005000000A24A04204E0000280500000000002040
:1005100014000000A80400003C05000014000020A6
:100520001C080000B8040000000000A5010203043C
:0C0530000506550000000000000000005F
:04000005000000C136
:00000001FF
