:020000040000FA
:1000000070090020D9000000DD000000DF000000C2
:1000100000000000000000000000000000000000E0
:10002000000000000000000000000000E1000000EF
:100030000000000000000000E30000007F09000055
:10004000750900000109000000000000FD08000023
:10005000FF080000790900007B0900008B090000FF
:100060008D0900008F0900009109000000000000C8
:10007000000000000509000077090000F5080000F5
:10008000F7080000F9080000FB08000081090000E3
:100090008309000085090000870900008909000024
:1000A000030900009309000011010000B1080000DD
:1000B000B3080000950100007D090000B5080000AC
:1000C0000448854600F012F800480047B5090000D2
:1000D000C046C0467009002003480047FEE7FEE71F
:1000E000FEE7FEE7FEE7FEE7C1000000064C012543
:1000F000064E05E0E36807CC2B430C3C98471034D0
:10010000B442F7D3FFF7E0FFEC0900000C0A00004F
:100110007047000010B51B48C06A032189070843D7
:100120001849C86217488038C0681021084315492B
:100130008039C8601348C06A012108431149C86268
:100140000846C06A022188430E49C8620E484068CA
:10015000092108430C49486000200C49087005211A
:100160000A48017107200949487002210748817037
:100170000121C17006480549C860084600F0AEF884
:1001800010BD000080C0084000400B40400100202E
:100190000400002010B54F48406A0121C9030840FF
:1001A000884218D14B48006A0321090608400028FC
:1001B0000AD00021484800F017FA4648006A012199
:1001C00009070843434908624248406A0121C903BC
:1001D0000843404948623F48406AFF2101310840D6
:1001E000884204D13B48406A08433A49486239484A
:1001F000406A01214902084088420AD13548406AD4
:100200000843344948620846006A012108433149DD
:1002100008623048406A012189020840884204D1BE
:100220002C48406A08432B4948622A48406A012109
:10023000C9020840884204D12648406A084325493B
:1002400048622448406A012109030840884204D1D9
:100250002048406A08431F4948621E48406A0121FD
:1002600049030840884204D11A48406A08431949A2
:1002700048621848406A012189030840884204D135
:100280001448406A0843134948621248406A0121F1
:1002900009040840884204D10E48406A08430D49C9
:1002A00048620C48406A012189040840884204D110
:1002B0000848406A0843074948620648406A0121E5
:1002C00009050840884204D10248406A08430149B0
:1002D000486210BD803000405005002030B500223B
:1002E000BD4B1B6A80242343BB4C23620378002B45
:1002F00004D0012B2CD0022B7ED181E0B74BDB6ADE
:100300000424A343B54CE362B34B9B6AB44C234033
:10031000B14CA36223469B6A047924062343AE4C66
:10032000A36223469B6A44782343AB4CA3622346D3
:100330009B6A84786406640C2343A74CA36223461B
:100340009B6AC4786406640A2343A34CA362AEE0AC
:10035000A24BDB6A04242343A04CE3629E4B1B6A3E
:100360000124E40523439C4C236223469B6A9C4C56
:100370002340994CA36223469B6A047924062343B5
:10038000954CA36223469B6A44782343924CA36214
:1003900023469B6A84786406640C23438E4CA362D4
:1003A00023469B6AC4786406640A23438A4CA3628A
:1003B0002346DB6A8B4C2340874CE3622346DB6A8F
:1003C000047A24062343844CE3622346DB6A44799F
:1003D000E406E40E2343804CE3622346DB6A84791F
:1003E0002407240D23437C4CE3622346DB6AC47953
:1003F0002407240B234300E058E0774CE36256E0E7
:10040000764BDB6A04242343744CE362724B1B6A11
:100410000124E405A343704C236223469B6A704C7D
:1004200023406D4CA36223469B6A04792406234330
:10043000694CA36223469B6A44782343664CA362BB
:1004400023469B6A84786406640C2343624CA3624F
:1004500023469B6AC4786406640A23435E4CA36205
:100460002346DB6A5F4C23405B4CE3622346DB6A36
:10047000047A24062343584CE3622346DB6A44791A
:10048000E406E40E2343544CE3622346DB6A84799A
:100490002407240D2343504CE3622346DB6AC479CE
:1004A0002407240B23434C4CE36200E000BF00BF51
:1004B000C368002B66D0C268002161E00C234B4367
:1004C0009B185B78002B4ED0434B5B6B0C244C434A
:1004D000145D10340125A5402B433F4C6363234634
:1004E0005B6B0C244C43145D2407240F23433A4CCC
:1004F000636323465B6B2024A343374C63630C2365
:100500004B439B185B68DB00DB08A36323465B6BF4
:1005100020242343304C63630C234B439B189B687C
:10052000DB00DB08A3630C234B439B18DB78002B19
:1005300005D023469B6BA4052343274CA3630C23C0
:100540004B439B189B78002B06D0234B9B6B0124BD
:10055000A4072343204CA3631F4B5B6B2024A343BE
:100560001D4C63630AE01C4B5B6B0C244C43145D15
:1005700010340125A540AB43174C63634B1CD9B223
:1005800010299BDB144B1B6A8024A343124C23626B
:1005900023461B6A182423430F4C236223461B6AFD
:1005A0006024A3430C4C236223461B6A2414A343F8
:1005B000094C236203231B07636223465B6A0F24F3
:1005C0002406A343044C636223465B6A042423434A
:1005D000014C636230BD00008030004080C00840A4
:1005E00000808000E0F0F000002904D1164A526833
:1005F0005206D20FC271012901D002290DD1124A2F
:100600001268D20F0271104A5268D206D20F42719C
:100610000D4A52689206D20F82710B4A1268D200BC
:10062000D2080260084A52681207120F4272064A44
:1006300052681206D20F0272034A9268C260024ADE
:10064000D3680361704700000030004010B51520EA
:1006500080012749086001204872082008720020A4
:10066000087148718871C871224908700AE02148F0
:10067000007821491F4A127888541E480078401C8F
:100680001C4908701A48007A1A4909788842EEDC39
:1006900019481749C86001220021154800F02EF8BA
:1006A00001208002124908600820087200200871A9
:1006B00048718871C8710F4908700AE00D480178C7
:1006C0000D480C4A127881540A480078401C0949A8
:1006D00008700748007A074909788842EEDC064826
:1006E0000349C86001220021014800F007F810BD4D
:1006F0003001002000000020CC000020F8B50B469F
:10070000144600250095002C0ED000BF674D2D6AC1
:10071000012676023540B542F8D0644D2D6AB60107
:100720003543624E35620DE000BF604D2D6A0126F3
:10073000F6023540B542F8D05C4D2D6A3601B5431E
:100740005A4E35620568ED00ED08584E403E356161
:10075000457A002D06D035462D6976063543534E31
:10076000403E3561057A2E07360F504D803D6E654F
:10077000002B0AD18579002D07D04C4D803D6D6D41
:1007800040263543494E803E7565012B01D0022B32
:1007900015D10579002D07D0444D803D6D6D102693
:1007A0003543424E803E75654579002D07D03F4D5B
:1007B000803D6D6D202635433C4E803E7565C57984
:1007C000002D07D0394D803D6D6D80263543374E65
:1007D000803E7565057A082D00DC027A057A092DC0
:1007E00000D10C22057A0A2D00D11022057A0B2D9A
:1007F00000D11422057A0C2D00D11822057A0D2D76
:1008000000D12022057A0E2D00D13022057A0F2D3D
:1008100000D140221546D617B60F7619B610B6008D
:10082000961B1ED0002119E0C5686D5C4F1CC66880
:10083000F65D360235438F1CC668F65D36043543D7
:10084000CF1CC668F65D360635430095174D283D2A
:100850008F10BF00009EEE510D1DE9B29142E3DB07
:100860000CE0002108E0C5686E58104D283D8F103F
:10087000BF00EE510D1DE9B29142F4DB002C0DD00A
:100880000A4D2D6A0126B6053543084E35623546B8
:100890002D6A36153543054E356206E0034D2D6A47
:1008A000012636033543014E3562F8BD80300040E5
:1008B00070477047704700000A4989680122920614
:1008C0001143084A91600849096904229143064A84
:1008D00011610649086009687D22D2005143044A2B
:1008E0001160704740C0084000E000E0C4000020F4
:1008F000C8000020704770477047704770477047C6
:1009000070477047704700001648006903210902CC
:100910008843144908610846006930218843114919
:10092000086111480F4980314861012008610F4872
:10093000C069042108430D49C8610A480069802143
:100940000843084908610846806909490840054983
:1009500088610846C0680121090408430149C8604C
:100960007047000000C00840C4400800007000400C
:10097000050100FE70477047704770477047704729
:1009800070477047704770477047704770477047AF
:100990007047704702E008C8121F08C1002AFAD148
:1009A00070477047002001E001C1121F002AFBD1EF
:1009B00070470000FFF7A8FF4820FFF77DFF1D20CC
:1009C000002809DB00BF00BFC206D20E0121914002
:1009D000054A116000BF00BF00BFFFF79BFBFFF798
:1009E00035FE00BFFEE7000000E100E00C0A000059
:1009F00000000020CC00000094090000D80A00008C
:100A0000CC000020A4080000A409000000000000A1
:100A100000010000000200000000000000000000D3
:100A200000000000000000000000000000000000C6
:100A300000000000000000000000000000000000B6
:100A400000000000000000000000000000000000A6
:100A50000000000000000000000000000000000096
:100A60000000000000000000000000000000000086
:100A70000000000000000000000000000000000076
:100A80000000000000000000000000000000000066
:100A90000000000000000000000000000000000056
:100AA0000000000000000000000000000000000046
:100AB0000000000000000000000000000000000036
:100AC0000000000000000000000000000000000026
:080AD00000000000000000001E
:04000005000000C136
:00000001FF
