:020000040000FA
:1000000070090020D9000000DD000000DF000000C2
:1000100000000000000000000000000000000000E0
:10002000000000000000000000000000E1000000EF
:100030000000000000000000E30000008B0800004A
:10004000810800000D080000000000000908000001
:100050000B080000850800008708000097080000D2
:10006000990800009B0800009D08000000000000A7
:1000700000000000110800008308000001080000D3
:100080000308000005080000070800008D080000B4
:100090008F080000910800009308000095080000F8
:1000A0000F0800009F080000110100007D070000FC
:1000B0007F070000A50100008908000081070000FB
:1000C0000448854600F012F800480047C1080000C7
:1000D000C046C0467009002003480047FEE7FEE71F
:1000E000FEE7FEE7FEE7FEE7C1000000064C012543
:1000F000064E05E0E36807CC2B430C3C98471034D0
:10010000B442F7D3FFF7E0FFF80800001809000039
:100110007047000010B51F48C06A032189070843D3
:100120001C49C8621B488038C0681021084319491F
:100130008039C8601748C06A012108431549C86260
:100140000846C06A022188431249C8621248806882
:10015000890408431049886008468068012109071E
:1001600008430D49886000200C49087005210B48A0
:10017000417107200949887002210848C170012196
:1001800001710120054948700548C860084600F023
:100190002FF810BD80C0084000400B4040010020F7
:1001A0000400002010B51048406A0121C90308402E
:1001B000884218D10C48006A03210906084000282B
:1001C0000AD00021094800F099F90748006A012186
:1001D00009070843044908620348406A0121C9032A
:1001E00008430149486210BD80300040500500209E
:1001F00030B50022BD4B1B6A80242343BB4C2362D5
:100200000378002B04D0012B2CD0022B7ED181E06F
:10021000B74BDB6A0424A343B54CE362B34B9B6A40
:10022000B44C2340B14CA36223469B6A4479240614
:100230002343AE4CA36223469B6A84782343AB4C92
:10024000A36223469B6AC4786406640C2343A74CCC
:10025000A36223469B6A04796406640A2343A34C81
:10026000A362AEE0A24BDB6A04242343A04CE3620A
:100270009E4B1B6A0124E40523439C4C23622346C6
:100280009B6A9C4C2340994CA36223469B6A447909
:1002900024062343954CA36223469B6A8478234318
:1002A000924CA36223469B6AC4786406640C234381
:1002B0008E4CA36223469B6A04796406640A234336
:1002C0008A4CA3622346DB6A8B4C2340874CE36253
:1002D0002346DB6A447A24062343844CE3622346A4
:1002E000DB6A8479E406E40E2343804CE362234610
:1002F000DB6AC4792407240D23437C4CE362234644
:10030000DB6A047A2407240B234300E058E0774C8F
:10031000E36256E0764BDB6A04242343744CE362C9
:10032000724B1B6A0124E405A343704C23622346ED
:100330009B6A704C23406D4CA36223469B6A4479B0
:1003400024062343694CA36223469B6A8478234393
:10035000664CA36223469B6AC4786406640C2343FC
:10036000624CA36223469B6A04796406640A2343B1
:100370005E4CA3622346DB6A5F4C23405B4CE36226
:100380002346DB6A447A24062343584CE36223461F
:10039000DB6A8479E406E40E2343544CE36223468B
:1003A000DB6AC4792407240D2343504CE3622346BF
:1003B000DB6A047A2407240B23434C4CE36200E0FD
:1003C00000BF00BFC368002B67D0C268002161E096
:1003D0000C234B439B185B78002B4ED0434B5B6B3D
:1003E0000C244C43145D10340125A5402B433F4C95
:1003F000636323465B6B0C244C43145D2407240F7A
:1004000023433A4C636323465B6B2024A343374C5E
:1004100063630C234B439B185B68DB00DB08A3631F
:1004200023465B6B20242343304C63630C234B43F4
:100430009B189B68DB00DB08A3630C234B439B18D2
:10044000DB78002B05D023469B6BA4052343274C68
:10045000A3630C234B439B189B78002B06D0234BA4
:100460009B6B0124A4072343204CA3631F4B5B6BAE
:100470002024A3431D4C63630AE01C4B5B6B0C24DC
:100480004C43145D10340125A540AB43174C636306
:100490004B1CD9B243788B429ADC144B1B6A8024E4
:1004A000A343124C236223461B6A182423430F4C98
:1004B000236223461B6A6024A3430C4C2362234619
:1004C0001B6A2414A343094C236205231B076362A0
:1004D00023465B6A0F242406A343044C636223462D
:1004E0005B6A80242343014C636230BD803000404E
:1004F00080C0084000808000E0F0F000002904D1B6
:10050000164A52685206D20FC271012901D002293F
:100510000DD1124A1268D20F0271104A5268D206E7
:10052000D20F42710D4A52689206D20F82710B4A65
:100530001268D200D2080260084A52681207120FED
:100540004272064A52681206D20F0272034A926839
:10055000C260024AD3680361704700000030004067
:1005600010B50520000215490860012048720820D6
:1005700008720020087148718871C87110490870AC
:100580000AE00F4800780F490D4A127888540C4849
:100590000078401C0A4908700848007A0849097820
:1005A0008842EEDC07480549C86001220021034863
:1005B00000F00AF80A2000F003F910BD3001002015
:1005C00000000020CC000020F8B50B4614460025A2
:1005D0000095002C0ED000BF674D2D6A01267602D3
:1005E0003540B542F8D0644D2D6AB6013543624EB0
:1005F00035620DE000BF604D2D6A0126F6023540E0
:10060000B542F8D05C4D2D6A3601B5435A4E35627D
:100610000568ED00ED08584E403E3561457A002DE5
:1006200006D035462D6976063543534E403E35613A
:10063000057A2E07360F504D803D6E65002B0AD18E
:100640008579002D07D04C4D803D6D6D402635439A
:10065000494E803E7565012B01D0022B15D10579DD
:10066000002D07D0444D803D6D6D10263543424E20
:10067000803E75654579002D07D03F4D803D6D6DFD
:10068000202635433C4E803E7565C579002D07D048
:10069000394D803D6D6D80263543374E803E756502
:1006A000057A082D00DC027A057A092D00D10C228A
:1006B000057A0A2D00D11022057A0B2D00D11422C3
:1006C000057A0C2D00D11822057A0D2D00D120229B
:1006D000057A0E2D00D13022057A0F2D00D140224F
:1006E0001546D617B60F7619B610B600961B1ED053
:1006F000002119E0C5686D5C4F1CC668F65D3602C6
:1007000035438F1CC668F65D36043543CF1CC6687A
:10071000F65D360635430095174D283D8F10BF0016
:10072000009EEE510D1DE9B29142E3DB0CE0002189
:1007300008E0C5686E58104D283D8F10BF00EE517F
:100740000D1DE9B29142F4DB002C0DD00A4D2D6A4B
:100750000126B6053543084E356235462D6A3615F5
:100760003543054E356206E0034D2D6A01263603FA
:100770003543014E3562F8BD803000407047704708
:10078000704700000A498968012292061143084A0D
:1007900091600849096904229143064A116106499A
:1007A000086009687D22D2005143044A11607047F5
:1007B00040C0084000E000E0C4000020C800002065
:1007C00001460D4A12684A430C4B5A6100229A6155
:1007D00007221A6100BF094A1069C207D20F002A16
:1007E00004D0012212040240002AF4D00022034B5C
:1007F0001A619A6170470000C800002000E000E024
:100800007047704770477047704770477047704730
:100810007047000016480069032109028843144903
:100820000861084600693021884311490861114870
:100830000F4980314861012008610F48C0690421D7
:1008400008430D49C8610A480069802108430849E6
:1008500008610846806909490840054988610846D9
:10086000C0680121090408430149C86070470000BD
:1008700000C00840C440080000700040050100FEB0
:1008800070477047704770477047704770477047B0
:1008900070477047704770477047704770477047A0
:1008A00002E008C8121F08C1002AFAD17047704739
:1008B000002001E001C1121F002AFBD17047000097
:1008C000FFF7A8FF4820FFF75DFF1D20002809DB88
:1008D00000BF00BFC206D20E01219140054A11603F
:1008E00000BF00BF00BFFFF715FCFFF739FE00BFD8
:1008F000FEE7000000E100E0180900000000002011
:10090000CC000000A0080000E4090000CC0000209A
:10091000A4080000B0080000000000000001000072
:1009200000020000FFFFFF1F0000000000000000A9
:1009300000000000000000000000000000000000B7
:1009400000000000000000000000000000000000A7
:100950000000000000000000000000000000000097
:100960000000000000000000000000000000000087
:100970000000000000000000000000000000000077
:100980000000000000000000000000000000000067
:100990000000000000000000000000000000000057
:1009A0000000000000000000000000000000000047
:1009B0000000000000000000000000000000000037
:1009C0000000000000000000000000000000000027
:1009D0000000000000000000000000000000000017
:0409E0000000000013
:04000005000000C136
:00000001FF
