:020000040000FA
:1000000058040020D9000000DD000000DF000000DF
:1000100000000000000000000000000000000000E0
:10002000000000000000000000000000E1000000EF
:100030000000000000000000E300000023030000B7
:100040001903000091010000000000008D01000074
:100050008F0100001D0300001F030000310300009A
:10006000590400005B0400005D0400000000000073
:1000700000000000AB0200001B030000850100002F
:1000800087010000890100008B01000025030000AA
:1000900027030000290300002B0300002D030000AC
:1000A000A90200005F0400003D01000041010000C2
:1000B000430100003F010000210300004501000052
:1000C0000448854600F028F80048004781040000F5
:1000D000C046C0465804002003480047FEE7FEE73C
:1000E000FEE7FEE7FEE7FEE7C100000030B50B4685
:1000F000014600202022012409E00D46D5409D4202
:1001000005D31D469540491B254695404019154687
:10011000521E002DF1DC30BD064C0125064E05E0D7
:10012000E36807CC2B430C3C98471034B442F7D318
:10013000FFF7CAFFC0040000E004000070477047EA
:1001400070477047704700000A498968012292068B
:100150001143084A91600849096904229143064AFB
:1001600011610649086009687D22D2005143044AA2
:100170001160704740C0084000E000E00C00002023
:1001800010000020704770477047704770477047F5
:1001900070470000F8B504460D46002600270020F1
:1001A00000903E4880680121090608433B49886069
:1001B0003B48006809214905084339490860394826
:1001C00000685021084337490860084640680B2101
:1001D0000843344948600846406830218843314923
:1001E000486008464068C02108432E4948600846D8
:1001F0004068891588432B494860084640680121BA
:10020000C90208432749486008464068032149025B
:10021000884324494860084640680321090388430D
:10022000204948601F4840304069012108431D496A
:1002300040314861084640690721090208431949CD
:10024000403148611748806801210843154988609A
:10025000084680680121490308431249886008461E
:1002600080680121890308430E49886008460068B8
:10027000891508430B49086021012846FFF736FF1E
:10028000064661002846FFF731FFF100471A38049F
:1002900030430090034900980862F8BD00C0084050
:1002A00000400B4000000C40704770471648006942
:1002B0000321090288431449086108460069302176
:1002C00088431149086111480F4980314861012074
:1002D00008610F48C069042108430D49C8610A48F4
:1002E0000069802108430849086108468069094976
:1002F0000840054988610846C0680121090408438F
:100300000149C8607047000000C00840C4400800B0
:1003100000700040050100FE70477047704770474D
:1003200070477047704770477047704770470000CC
:1003300010B52F484069012149030840884202D185
:1003400001202C4908702A4840690121890308408E
:10035000800B28490978012900D100E000210840DC
:10036000002823D02248403080693D280AD1204807
:1003700040304069012108431D4940314861022055
:100380001C4908701A48403080693A280ED1184834
:1003900040304069800880001549403148610020A4
:1003A000144908700821144800F038F810484069D2
:1003B0000121484048400F490978022901D1012113
:1003C00000E00021084000280AD009488069C1B235
:1003D0000A4802780078401C084B1870084881547D
:1003E00003480068FF21013108430149086010BD3E
:1003F00000000C400200002003000020000000204C
:100400001400002000BF044949690222114002295A
:10041000F9D10149C861704700000C4030B503466E
:100420000C46002504E01878FFF7ECFF5B1C6D1C00
:10043000A542F8D300BF074840690121C90308401D
:100440008842F8D103480068C9110843014908608F
:1004500030BD000000000C40704770477047704787
:1004600002E008C8121F08C1002AFAD1704770477D
:10047000002001E001C1121F002AFBD170470000DB
:10048000FFF714FF1820FFF75FFE0720002809DBA5
:1004900000BF00BFC206D20E01219140054A116083
:1004A00000BF00BF00BF04490448FFF773FE00BF50
:1004B000FEE7000000E100E000A24A04204E000038
:1004C000E0040000000000201400000060040000B0
:1004D000F404000014000020440400007004000034
:1004E000000000A5010203040506550000000000FD
:0404F0000000000008
:04000005000000C136
:00000001FF
